:060000000A128A11122809
:10000800FE00030E83120313BA000408BB000A089B
:10001800BC007F08BD000A128A117D2F0A128A11BE
:1000280015288313DE30FD000D30FE00BF30FF00C1
:10003800D43084000A128A1521260A128A110A125B
:100048008A1586250A128A11D5000A128A1587256B
:100058000A128A11D600C7308400D4300A128A15D1
:10006800A4250A128A113E30840055300A128A15D6
:10007800A42583010A128A11742C2008FB00210888
:10008800FC002208FD0003107C0D7D0DFF007F0899
:10009800A6002608031D57280030A0000030A10044
:1000A8000030A20008002308FB002408FC002508F3
:1000B800FD0003107C0D7D0DFF007F08AB002B08B1
:1000C800031D6D280030A0000030A1000030A20000
:1000D80008002B087B3EFF007F08A6072208FF00C8
:1000E8007F08AB002508FF007F08AB068030FF00C3
:1000F8007F08AB05A117A417FF30A305FF30A4059F
:100108000030A5050030A7000030A8000030A90085
:100118000730FF007F08AA00201CA0282308A70793
:10012800240803110318240A031DA807250803112E
:100138000318250A031DA90701300310A20CA10CFE
:10014800A00CFF3E031DA12801300310A30DA40D30
:10015800A50DFF3E031DA9280130AA02031D902802
:100168000930FF007F08AA00201CC8282308A70719
:10017800240803110318240A031DA80725080311DE
:100188000318250A031DA90701300310A20CA10CAE
:10019800A00CFF3E031DC92801300310A90CA80CB0
:1001A800A70CFF3E031DD1280130AA02031DB82861
:1001B8002708F0002808F1002908F2002608FF00A7
:1001C8007F08F3002B08FF007F08F4000A128A1149
:1001D8005C257008A0007108A1007208A200080040
:1001E8003508A1003408A000E830A2000330A300BD
:1001F8000A128A1166230A128A112308BB002208F0
:10020800BA002108B9002008B8008312121492100D
:100218009215121692161217D230FF007F08831615
:10022800C900FF309200C030BC003F30BD00003034
:10023800A3000030A2003F30A100C030A0003B085E
:10024800A7003A08A6003908A5003808A4000A1231
:100258008A1131270A128A11230822042104200452
:10026800031975292230BE003D30BF003E08A000AA
:100278003F08A100A201A3013B08A7003A08A60075
:100288003908A5003808A4000A128A1131270A1271
:100298008A112308220421042004031D6A293F0827
:1002A800BD003E08BC003D08B7003C08B60006305B
:1002B8000310B70CB60CFF3E031D5C29120836026A
:1002C800FF3A013EFF007F08D2007A290130BE02C2
:1002D8000030031CBF03BF023E083F0403197A29FC
:1002E8003A29D201FE30BC000130BD003C08A00014
:1002F8003D08A100A201A3013B08A7003A08A600F7
:100308003908A5003808A4000A128A1129262008ED
:10031800FF007F08D100D130FF007F08CA00080025
:100328003508A1003408A000E830A2000330A3007B
:100338000A128A1166230A128A112308BB002208AE
:10034800BA002108B9002008B800811101108114F1
:10035800011181120112D030FF007F08C700F83068
:10036800BC000730BD000030A3000030A2000730F9
:10037800A100F830A0003B08A7003A08A6003908F9
:10038800A5003808A4000A128A1131270A128A1116
:1003980023082204210420040319132AF730BE007D
:1003A8000730BF003E08A0003F08A100A201A3013A
:1003B8003B08A7003A08A6003908A5003808A40099
:1003C8000A128A1131270A128A11230822042104E9
:1003D8002004031D082A3F08BD003E08BC003D0854
:1003E800B7003C08B6000310B70CB60C0310B70CE6
:1003F800B60C0310B70CB60C3608013EFF3A013EA6
:10040800FF007F08D000182A0130BE020030031C0C
:10041800BF03BF023E083F040319182AD629D0019A
:10042800F830BC000730BD003C08A0003D08A10022
:10043800A201A3013B08A7003A08A6003908A500B5
:100448003808A4000A128A1129262008FF007F080C
:10045800CF00CF30FF007F08C80008003508A10092
:100468003408A000E830A2000330A3000A128A1161
:1004780066230A128A112308BB002208BA00210841
:10048800B9002008B8008312901090111012901231
:10049800CD30FF007F088316CB00FF30BC00FF3053
:1004A800BD000030A3000030A200FF30A100FF30E3
:1004B800A0003B08A7003A08A6003908A50038089C
:1004C800A4000A128A1131270A128A112308220469
:1004D800210420040319AE2A5030BE00C330BF00E7
:1004E8003E08A0003F08A100A201A3013B08A70005
:1004F8003A08A6003908A5003808A4000A128A118B
:1005080031270A128A112308220421042004031D1A
:10051800A32A3F08BD003E08BC003C08013EB600C7
:100528003D080318013E003EB700B609B709B60AF0
:100538000319B70A3608CD003708CE00B42A0130AF
:10054800BE020030031CBF03BF023E083F0403196C
:10055800B42A742ACD01CE01FF30BC00FF30BD00A3
:100568003C08A0003D08A100A201A3013B08A70088
:100578003A08A6003908A5003808A4000A128A110A
:1005880029262008FF007F08D300D330FF007F080A
:10059800CC0008007B08A0007C08A1007D08A20010
:1005A8000310210D220DFF007F08A7002708031D57
:1005B800E42A0030F8000030F9000030FA000800A2
:1005C8007808A0007908A1007A08A2000310210D7C
:1005D800220DFF007F08A8002808031DFA2A003012
:1005E800F8000030F9000030FA0008000030A400DC
:1005F8000030A5000030A60089302807A000200898
:10060800A7027D08FF007F08A8007A08FF007F087E
:10061800A8068030FF007F08A805FC17FF30FB05FF
:10062800FF30FC050030FD05F917FF30F805FF30F5
:10063800F9050030FA051830FF007F08A3000130E3
:100648000310A40DA50DA60DFF3E031D242B7A084B
:100658007D02031D352B79087C02031D352B780894
:100668007B02031C422B7808FB027908031C790FD4
:10067800FC027A08031C7A0AFD02241401300310D4
:10068800FB0DFC0DFD0DFF3E031D432B0130A302A6
:10069800031D232B2408F0002508F1002608F2008A
:1006A8002708FF007F08F3002808FF007F08F400F0
:1006B8000A128A115C257008F8007108F90072089E
:1006C800FA0008000030B3000030B2000030B1007A
:1006D8000030B00023082102031D742B22082002D9
:1006E800031CAF2BAC01AD0123082D02031D7E2B8B
:1006F80022082C020318F02B3008A4003108A500AA
:100708003208A6003308A7002008A8002108A9007D
:10071800AA01AB012808A40729080318290F952B5B
:10072800962BA5072A0803182A0F9B2B9C2BA60794
:100738002B0803182B0AA7072708B3002608B200BE
:100748002508B1002408B0000130AC070318AD0A31
:100758000030AD07782B23082102031DB52B220892
:1007680020020318F02BAE01AF0121082F02031D50
:10077800BF2B20082E020318F02B3008A4003108E4
:10078800A5003208A6003308A7002208A8002308FD
:10079800A900AA01AB012808A40729080318290FF2
:1007A800D62BD72BA5072A0803182A0FDC2BDD2BFD
:1007B800A6072B0803182B0AA7072708B300260843
:1007C800B2002508B1002408B0000130AE070318B4
:1007D800AF0A0030AF07B92B3308A3003208A200D4
:1007E8003108A1003008A00008002908AD002A0837
:1007F800AE002B08AF0003102E0D2F0DFF007F0851
:10080800B5003508031D112C0030AC000030AB00DA
:100818000030AA000030A90008002908AD002A0805
:10082800AE002B08AF0017300310AF0CAE0CAD0CA8
:10083800FF3E031D182C2D08FF007F08B000AA17E3
:10084800FF30A905FF30AA050030AB052908B10023
:100858002A08B2002B08B300B4018E30B502B51FC8
:100868004A2C3508803A8F3E031C082C01300310AF
:10087800B40CB30CB20CB10CFF3E031D3B2C013081
:10088800FF007F08B50703195D2C3A2C1830350294
:100898000318082C350803195D2C0130AD0003102E
:1008A800B10DB20DB30DB40DAD0B532C0130B50223
:1008B8004E2C300803196B2CB109B209B309B409DD
:1008C800B10A0319B20A0319B30A0319B40A34089E
:1008D800AC003308AB003208AA003108A9000800B0
:1008E800831686013130FF007F0886048610831244
:1008F80086108601DB30FF007F0883168705831288
:10090800871207118316880183128801831605153B
:10091800CF30FF007F088505831285010A128A11EE
:10092800FA270A128A110B1601138B170B1764305A
:10093800C0000030C10000300A128A1574270A125C
:100948008A11E8308316C0000330C10002300A1251
:100958008A1574270A128A11DF2C8712071186104C
:1009680055088316C500C6014508C0004608C100E1
:100978000A128A150C260A128A110A128A11872667
:100988000A128A115008031DB12C4C088316AD00B9
:1009980083124B088316AC000A128A11E9240A1242
:1009A8008A110A128A11C8250A128A110A128A1192
:1009B80087260A128A1183124F08031DC62C0A12B1
:1009C8008A15AC250A128A11DF2CB2308400D43083
:1009D800AE000408AF000A30B0002E08840083136C
:1009E8000008B100AE0A2F08840031088000AF0A61
:1009F800B00BF12C0A30A7000030A8000A30A00084
:100A08000030A1002D08A3002C08A2000A128A15A4
:100A180038270A128A112108AA002008A9000A12F8
:100A28008A11C8270A128A112808BD002708BC00A5
:100A38000A30A7000030A8002D08AA002C08A90039
:100A48000A128A11C8270A128A112808BF00270823
:100A5800BE0083120512851683163E08B23E840036
:100A680083130008831288000D3083160313AF0028
:100A7800FB30AE00AE0B3E2DAF0B3E2D83120313A1
:100A88000516851283163C08B23E840083130008BD
:100A9800831288000D3083160313AF00FB30AE00BD
:100AA800AE0B542DAF0B542D83120313851608007B
:100AB80073080319642D720871047004031D772DDF
:100AC8000030F0000030F1000030F2000800013082
:100AD800FF007F08F30701300310F20CF10CF00C53
:100AE800FF3E031D702DFE3072050319922D6B2DEC
:100AF8000130FF007F08F3070130F00700300318CA
:100B08000130F107003003180130F20701300310FB
:100B1800F20CF10CF00CFF3E031D8B2DFF3072051B
:100B28000319A52D7C2D02307302031CA72D01305B
:100B3800F30201300310F00DF10DF20DFF3E031D1D
:100B48009E2DF11F972D7318AF2DFF30F0057F30C4
:100B5800F105FF30F2050310F30C7308F500F601F8
:100B6800F70110300310F50DF60DF70DFF3E031DCC
:100B7800B62D7508F0047608F1047708F2047408B5
:100B880003190800F21708008316A901AA01AD018C
:100B98002D083E3E8400831300082907A9002A086F
:100BA80003182A0AAA000130FF007F08AD070A309F
:100BB8002D02031CCC2D0A30A0000030A1002A0809
:100BC800A3002908A2000A128A1538270A128A11D6
:100BD8002108AC002008AB0083125508FB3E8316A1
:100BE800A700FF3003180030A80028082C02031DB6
:100BF800FF2D27082B0203180E2E831287160711C4
:100C08005603031D092E861408005608031D080004
:100C18008610080083125508053E8316A700003089
:100C280003180130A8002C082802031D1D2E2B08CC
:100C380027020318242E831207158712861408002A
:100C4800831287120711861008000030AC000030AC
:100C5800AB000030AA000030A900230822042104B8
:100C6800200403197E2EAD01AD0AA31B492E0130C5
:100C7800A8000310A00DA10DA20DA30DA80B3D2ED9
:100C88000130FF007F08AD07392E0130A80003109E
:100C9800A90DAA0DAB0DAC0DA80B4B2E23082702EE
:100CA800031D602E22082602031D602E210825023E
:100CB800031D602E20082402031C712E2008A402A4
:100CC8002108031C210FA5022208031C220FA602DB
:100CD8002308031C230FA702291401300310A30CB7
:100CE800A20CA10CA00CFF3E031D722E0130AD0218
:100CF800031D492E2C08A3002B08A2002A08A100D6
:100D08002908A0000800061AB32E823083160313A0
:100D1800C400DD30C300C30B8F2EC40B8F2E0A1204
:100D28008A1597250A128A1101300A128A157A261D
:100D38000A128A1101300A128A158E260A128A119D
:100D480088308316C0001330C10001300A128A159A
:100D580074270A128A110A128A15A3260800861A0D
:100D68000800823083160313C400DD30C300C30BB0
:100D7800BB2EC40BBB2E0A128A1597250A128A119C
:100D880001300A128A157A260A128A1101300A12CB
:100D98008A158E260A128A1188308316C0001330ED
:100DA800C10001300A128A1574270A128A110A1220
:100DB8008A15FB250800831203130C1CFD2E013035
:100DC800FF007F08D40783164B08840083130008AC
:100DD80083128E00840A00088F000C1083164C08BA
:100DE8008400000883125406031D2F2FD4013130CC
:100DF80008008C1C162F0130FF007F08D3078316CC
:100E08004908840083130008831291008C1083160C
:100E18004A088400000883125306031D2F2FD301AC
:100E2800323008000B1D2F2F0130FF007F08D2073A
:100E380083164708840083130008831281000B116E
:100E4800831648088400000883125206031D2F2FBA
:100E5800D20130300800623008002308220421043F
:100E680020040319742FA901A90AA31B492F0130D3
:100E7800A8000310A00DA10DA20DA30DA80B3D2FD6
:100E88000130FF007F08A907392F23082702031D17
:100E9800572F22082602031D572F21082502031D5C
:100EA800572F20082402031C672F2008A4022108BA
:100EB800031C210FA5022208031C220FA6022308E7
:100EC800031C230FA70201300310A30CA20CA10CD2
:100ED800A00CFF3E031D682F0130A902031D492FF6
:100EE8002708A3002608A2002508A1002408A000BE
:100EF8000800AD2F02300A128A15B5270A128A1186
:100F08003708CC003608CB004C08F1004B08F0003D
:100F18000A128A152E260A128A11BC2F0A128A155D
:100F2800B5250A128A1101300A128A1553260A12A7
:100F38008A11BC2F0A128A15C9250A128A11BC2FD8
:100F48008B1CBC2F0A128A15D4250A128A118B1001
:100F5800BC2F0A128A11DF260A128A11303A0319A5
:100F68007E2F013A0319922F033A03199E2FA42FBB
:100F780083123D08FF003C088A003B0884003A0EB3
:100F88008300FE0E7E0E0900270828040319F52F9A
:100F9800AB01AB0AA81BDC2F01300310A70DA80D6D
:100FA800FF3E031DD12F0130FF007F08AB07CE2F76
:100FB80028082A02031DE22F27082902031CEA2F0A
:100FC8002708A9022808031CAA03AA020130031053
:100FD800A80CA70CFF3E031DEB2F0130AB02031D2D
:100FE800DC2F2A08A8002908A700080051309F0014
:080FF800803083169F00080001
:101B0C003C3401340A128A159C25911408000A12DF
:101B1C008A159C25111408000A128A159C2511158A
:101B2C00080083120313D601D60A08008316141971
:101B3C009C2D11081F39031908009C2D640080018D
:101B4C00840A0406031900340406A52D4F08031D4E
:101B5C000800071187120A128A15BF260800D00147
:101B6C005508FF007F08F20000300A128A1508277A
:101B7C0008003F3406345B344F3466346D347D34A6
:101B8C0007347F346F345603031DCE2DD601080065
:101B9C005608031D0800D601D60A08004F08031D7D
:101BAC00DA2DCF01CF0A08004F03031D0800CF0127
:101BBC000800F0000A128A159C250A128A15700872
:101BCC00831293008C1DE82D8C1108008316871549
:101BDC000716910194018312941694151411941004
:101BEC001410CF3083169300080083125008031D85
:101BFC00022ED001D00A08005003031D0800243027
:101C0C005502031C08000530D50208008312560843
:101C1C000319192E83164108AD004008AC000A12B6
:101C2C008A11E92408000A128A15BF2608007E08CA
:101C3C008A007F0882001D260A128A158000840AF9
:101C4C0004087D0603190034FF0A0319FE0A212E2D
:101C5C007008FF0051083E3E84007F08831380000B
:101C6C000130FF007F08D1070A305106031D080020
:101C7C00D1010800F1000A128A159C250A128A1556
:101C8C007108F0007007831293008C1D4B2E8C1181
:101C9C0000308316111B01300800F0007003031D87
:101CAC005A2E83121010080002307006031D612E8C
:101CBC008312121108007008031D0800811508001A
:101CCC007808F0007908F100F2018E30FF007F08EF
:101CDC00F300F4010A128A115C257008F8007108EF
:101CEC00F9007208FA0008008316A0002003031DF7
:101CFC00822E83121010080002302006031D892E3C
:101D0C008312121108002008031D08008115080019
:101D1C008316A0002003031D962E8312D401080005
:101D2C0002302006031D9D2E8312D30108002008CB
:101D3C00031D08008312D201080083125008031DF2
:101D4C00AA2ED001D00A08005003031D08004B3006
:101D5C0055020318B62E0530FF007F08D507080082
:101D6C004B305502031C08004B30FF007F08D50098
:101D7C0008000512851688010D3083160313A10087
:101D8C00FB30A000A00BC82EA10BC82E831203138E
:101D9C000516851288010D3083160313A100FB3044
:101DAC00A000A00BD72EA10BD72E831203138516E0
:101DBC000800F30008307302031CE72EF001F10158
:101DCC000800C530FF007F089F057308F200023041
:101DDC000310F20DFF3E031DEE2E0310720DFF00DB
:101DEC007F089F041330F200F20BFA2EFD2E8312A3
:101DFC0003131F151F19002F1E08F10083161E0850
:101E0C00F0000800F3000A128A15EC250A128A1554
:101E1C000A128A158D250A128A1550300A128A1553
:101E2C0040260A128A15003A0319222F0A128A1523
:101E3C0088250A128A15132F00300A128A15DF25FD
:101E4C000A128A1573080A128A15DF250A128A15D6
:101E5C0072080A128A15DF250A128A150A128A15C7
:101E6C0092250800A501A6012008210403196F2F53
:101E7C00A401A40AA11B4E2F01300310A00DA10D2B
:101E8C00FF3E031D432F0130FF007F08A407402FA6
:101E9C0001300310A50DA60DFF3E031D4F2F210889
:101EAC002302031D5B2F20082202031C642F200831
:101EBC00A2022108031CA303A30225140130031062
:101ECC00A10CA00CFF3E031D652F0130A402031DC5
:101EDC004E2F2608A1002508A0000800C2004203CE
:101EEC00031D8D2F4108B5004008B4000A128A1159
:101EFC0032224B0884008313000883128E00840A5C
:101F0C0000088F0083160C14831210140800023082
:101F1C004206031DA32F4108B5004008B4000A1265
:101F2C008A11F4204908840083130008831291005D
:101F3C0083168C148312121508004208031D080026
:101F4C004108B5004008B4000A128A1194214708D0
:101F5C00840083130008831281008B160800B900DB
:101F6C0039080A128A15DF260A128A15710883129B
:101F7C00CE007008CD000030A000A030A1003B3096
:101F8C00A2004E08F9004D08F8000A128A156626C0
:101F9C000A128A157808A3007908A4007A08A5000B
:101FAC000A128A1141200A128A152008C800210839
:101FBC00C9002208CA004808FB004908FC004A086E
:101FCC00FD00D730F8002330F9003C30FA000A123B
:101FDC008A11CE220A128A157808A9007908AA005B
:101FEC007A08AB000A128A11F9232A08B7002908CB
:041FFC00B600080023
:02400E00723FFF
:00000001FF
